:1000000008050020C10000002501000025010000B6
:1000100000000000000000000000000000000000E0
:1000200000000000000000000000000025010000AA
:100030000000000000000000250100005D04000039
:10004000F1080000250100000D0500003105000049
:1000500069040000B1040000250100002501000032
:1000600025010000250100002501000025010000F8
:1000700025010000250100002501000025010000E8
:1000800025010000250100002501000025010000D8
:1000900025010000250100002501000025010000C8
:1000A00025010000250100002501000025010000B8
:1000B0007D0A0000C5130000250100002501000095
:1000C00080B582B000AF124B7B60124B3B6007E003
:1000D0003B681A1D3A607A68111D796012681A60CF
:1000E0003A680D4B9A42F3D30C4B3B6004E03B68FB
:1000F0001A1D3A6000221A603A68094B9A42F6D3F8
:1001000001F01CF800F07EF9BD4602B080BDC0468B
:10011000AC16000000000020240000202800002071
:100120000401002080B500AFFEE7C04680B582B074
:1001300000AF00237B6014E07B680020191C0122C3
:1001400000F008FA7B680220191C012200F002FA74
:100150007B680320191C012200F0FCF97B68013345
:100160007B607B68072BE7D90020002100F04EFA66
:100170000220002100F04AFA0320002100F046FA94
:10018000054B00221A70054B00221A70044B002206
:100190001A70BD4602B080BD8200002080000020A1
:1001A0008100002080B582B000AF0A1CFB1D011C3D
:1001B0001970BB1D1A70054BFA1D12781A70044B8A
:1001C000BA1D12781A70BD4602B080BD82000020B0
:1001D0008000002080B582B000AF3C4B1978FB1C3A
:1001E00001220A401A70394B1A78BB1C52081A7047
:1001F0000020002100F00AFA0220002100F006FA97
:100200000320002100F002FAFB1C1B78002B26D0F3
:100210002F4B1B781A1CBB1C1B78DB00D31A7B608E
:100220007B68002B01DA00237B607B68072B06DCF0
:1002300001227B68111C99400B1C013B00E0FF234D
:100240000220191C00F0E2F9BB1C1B780122111CD2
:1002500099400B1C0020191C00F0D8F925E01D4B1B
:100260001B781A1CBB1C1B78DB00D31A7B607B68D5
:10027000002B01DA00237B607B68072B06DC012260
:100280007B68111C99400B1C013B00E0FF230320FD
:10029000191C00F0BBF9BB1C1B780122111C9940F2
:1002A0000B1C0020191C00F0B1F9084B1B780C2B1B
:1002B00006D8064B1B780133DAB2044B1A7002E001
:1002C000024B00221A70BD4602B080BD81000020A2
:1002D0008200002080000020B0B582B000AF021C78
:1002E0003960FB1D1A70FB1D1B787F2B32D93049FA
:1002F000FB1D1B781A1C0F231340083B98082C4A3F
:10030000FB1D1B781C1C0F232340083B9B08063356
:100310009B00D3185B68FA1D1278141C032222403C
:10032000D200FF24251C95402A1CD2431A403B686A
:100330009C01FF231C40FB1D1B781D1C03232B402D
:10034000DB00251C9D402B1C1A43831D9B00CB18F2
:100350005A6029E0174BFA1D127852B292081549DB
:10036000F81D007840B28008C03080004158F81D68
:100370000078041C03202040C000FF24251C854079
:10038000281CC043084039688C01FF210C40F91D2E
:1003900009780D1C03212940C900251C8D40291C0A
:1003A0000143C0329200D150BD4602B0B0BDC0463C
:1003B00000ED00E000E100E080B582B000AF7860C1
:1003C0007A680E4B9A4201D9012312E00C4B7A68ED
:1003D0001202120A013A5A6001235B42181C0321DF
:1003E000FFF77AFF064B00229A60054B07221A603E
:1003F0000023181CBD4602B080BDC046FFFFFF00B1
:1004000010E000E080B500AF114B59221A60104B8C
:1004100016221A600E4B88221A600020012100F07B
:10042000E3FAC046002000F075FC031C012BF9D153
:10043000002000F0B1FA074B181C00F0F1FB064B4E
:10044000181CFFF7B9FFFFF771FE00F09DFCFEE7F7
:100450000001005080F0FA021027000080B500AFC4
:10046000FFF7B8FEBD4680BD80B582B000AF0D4B32
:100470001B6A7B600C4B1B6A3B600A4B7A681A62F2
:10048000094B3A681A62094B1B68002B06D0074BD0
:100490001B6879683A68081C111C9847BD4602B071
:1004A00080BDC04600400050404000502800002061
:1004B00080B584B000AF114B1B6AFB60104B1B6A08
:1004C000BB60104B1B6A7B60BB680C229343BB6014
:1004D0000A4BFA681A620A4BBA681A62094B7A68C0
:1004E0001A62094B1B68002B05D0074B1B68F86884
:1004F000B9687A689847BD4604B080BD8040005016
:10050000C0400050004100502C00002080B500AFDA
:10051000054B04221A62054B1B68002B02D0034BCB
:100520001B689847BD4680BDC04000503000002089
:1005300080B500AF054B08221A62054B1B68002BE3
:1005400002D0034B1B689847BD4680BDC040005099
:100550003400002090B585B000AF3960FB1D011C50
:100560001970BB1D1A70FB1D1B789B01264A9B1836
:10057000FB60BB1D1B78002B07D0BB1D1B78012B1C
:1005800003D0BB1D1B78022B2CD1FB68FA681268C4
:10059000396849000320041C8C40211CC9430A40CF
:1005A0001A60BB1D1B78012B0BD1FB68FA68116820
:1005B0003A6852000120041C9440221C0A431A602D
:1005C0000FE0BB1D1B78022B0BD1FB68FA6811688A
:1005D0003A6852000220041C9440221C0A431A600C
:1005E0000FE00EE0BB1D1B78032B0AD1FB68FA68F5
:1005F00011683A6852000320041C9440221C0A43EC
:100600001A60BD4605B090BD0040005080B582B074
:1006100000AF021C3960FB1D1A70FB1D1B789B018B
:10062000044A9B183A681A600023181CBD4602B0A1
:1006300080BDC0460840005090B583B000AF021C9A
:10064000FB1D1A70FB1D1B781D2B00D915E19A00AC
:100650008D4BD3181B689F468C4B00221A608C4B25
:1006600000221A608B4B00221A608B4B00221A600A
:100670008A4B00221A6002E1874B874A1168884A38
:100680000A408021C9010A431A60F8E0824B824A7D
:100690001168844A0A40C02189010A431A60EEE0C9
:1006A0007B4B7B4A1168804A0A40F02109020A43C9
:1006B0001A60E4E0754B754A11687B4A0A40F021E4
:1006C00009020A431A60DAE0714B714A1268F91D97
:1006D000097803310120041C8C40211CC9431140BE
:1006E000FA1D1278053A0120041C9440221C0A438A
:1006F0001A60C4E0684B684A11686C4A0A400421D9
:100700000A431A60BBE0644B634A1168684A0A40B6
:1007100008210A431A60B2E05F4B5F4A1168654ADC
:100720000A4010210A431A60A9E05B4B5A4A11683B
:10073000614A0A4020210A431A60A0E0544B544AFF
:1007400011685E4A0A40802149000A431A6096E017
:100750004F4B4F4A11685A4A0A40802189000A4388
:100760001A608CE04C4B4C4A1168564A0A400321EF
:100770000A431A60454B454A1168534A0A40C02152
:1007800009010A431A607AE0414B414A11684E4A16
:100790000A40C02109010A431A603C4B3B4A1168D8
:1007A000484A0A40C02189000A431A6067E0394B71
:1007B000384A1168FA1D1278113A52000320041CBD
:1007C0009440221C0A43F91D097815394900032079
:1007D000041C8C40211CC9430A401A604FE0FB1DD9
:1007E0001B78192B08D12D4B2C4A1168354A0A4029
:1007F00003210A431A600CE0FB1D1B781A2B08D159
:10080000264B264A1168304A0A400C210A431A60D6
:1008100035E034E01F4B1F4A1268120C1204FF210E
:100820000A431A60194B194A1268120C1204FF216C
:100830000A431A60184B184A11681D4A0A40802161
:1008400009010A431A60144B134A11681F4A0A40EF
:10085000C0210A431A60114B104A1168114A0A401C
:1008600030210A431A600AE00C4B0C4A1168174AFF
:100870000A40C0210A431A6001E0154B00E0002342
:10088000181CBD4603B090BD6C1500003000005030
:1008900034000050380000503C0000504000005030
:1008A000BFBFFFFFCFCFFFFF0F0FFFFFFBFBFFFF20
:1008B000F7F7FFFFEFEFFFFFDFDFFFFFFEFEFFFFBA
:1008C000FDFDFFFFFCFCFFFFF3F3FFFF3F3FFFFFDA
:1008D0000189FFFF80B500AFA023DA0580235B000C
:1008E000D3581A1C01231340181CBD4680BDC046B6
:1008F00080B500AFA023DB059A6910210A439A61F5
:10090000044B1B68002B02D0024B1B689847BD4666
:1009100080BDC0463800002080B582B000AF021C08
:10092000FB1D1A70FB1D1B78072B0BD8FB1D1B78BA
:10093000032B03D9FB1D1B78062B03D9FB1D1B784A
:10094000012B01D1114B1DE0114BFA1D117807222B
:100950000A40D1B207220A401969072081430A439D
:100960001A610B4BDB681B06DB0FDBB2002B06D0DA
:10097000074BDA6880210A43DA60064B02E000F098
:100980006BFB0023181CBD4602B080BD0396FFFF21
:10099000000200500796FFFF80B582B000AF021C36
:1009A000FB1D1A70FB1D1B78072B03D8FB1D1B7842
:1009B000012B01D10A4B0EE00A4BFA1D11780722D8
:1009C0000A40D1B207220A40D20019693820814377
:1009D0000A431A610023181CBD4602B080BDC04600
:1009E0000396FFFF0002005080B582B000AF021CEA
:1009F0003960FB1D1A70FB1D1B78012B12D0022BD6
:100A000020D0002B2ED11B4B3A68D2B2111C0122F0
:100A10000A40D1B201220A401968012081430A43E9
:100A20001A6021E0134B3A68D2B2111C01220A402D
:100A3000D1B201220A4092001968042081430A437E
:100A40001A6011E00B4B3A68D2B2111C01220A4025
:100A5000D1B201220A40D2001968082081430A431A
:100A60001A6001E0044B00E00023181CBD4602B0F0
:100A700080BDC046000200500396FFFF80B500AF66
:100A8000064B1A6840210A431A60054B1B68002B6D
:100A900002D0034B1B689847BD4680BD0002005042
:100AA0003C00002080B588B000AF021C3960FB1DFF
:100AB0001A70364B3B610023FB603A68344B9A4214
:100AC00006D83A68334B9A4202D900237B611DE075
:100AD0003A68304B9A4209D83A682F4B9A4205D966
:100AE00001237B613B685B003B600FE03A682A4B67
:100AF0009A4209D83A68294B9A4205D903237B6167
:100B00003B689B003B6001E0254B3AE0FB1D1B78F6
:100B1000002B02D11D4B3B6105E0FB1D1B78012B17
:100B200001D1204B3B613B68181C1F4900F0CEFCF3
:100B3000031CBB613B69181C1B4900F0C7FC031C6C
:100B4000FB61FA690123134010D1BA6901231340F4
:100B50000CD1FB69022B09D0BB69022B06D0FB69C3
:100B60005B08FB61BB695B08BB61EAE77B699A03D1
:100B7000FB69023B5B021A43BB69023B1343FB6008
:100B8000FB68181CBD4608B080BDC046001BB700FE
:100B900000C2EB0B00E1F50580F0FA023F787D0121
:100BA0002EC200000080510140420F0080B582B08B
:100BB00000AF7860174B7A6892B2D205D20D92B22C
:100BC000D205D20D196A490A49020A431A62114B29
:100BD0007A68520AD2B2111C1F220A40D1B21F22D7
:100BE0000A405202186A0C4901400A431A62094B32
:100BF0007A68920BD2B2111C03220A40D1B20322AE
:100C00000A409203186A054901400A431A62BD4628
:100C100002B080BD00020050FFC1FFFFFF3FFFFF99
:100C200080B584B000AF78603B1C0F3300221A708F
:100C30007A68314B9A4203D87A68304B9A4201D88D
:100C40002F4B54E0FFF746FE031C002B01D12D4B28
:100C50004DE02D4B1B6A1B03DB0FDBB2002B11D1C8
:100C6000294B1A6801210A431A60C046264BDB68EB
:100C7000DB07DB0FDBB2002BF8D03B1C0F3300226D
:100C80001A7010E0204B1A6804210A431A60C0460B
:100C90001D4BDB68DB06DB0FDBB2002BF8D03B1C07
:100CA0000F3301221A703B1C0F331A787B68101C1B
:100CB000191CFFF7F7FE031CBB60BB68181CFFF78D
:100CC00075FF114B196A114A0A401A620E4B196AD4
:100CD0000F4A0A401A62C0460B4BDB685B07DB0F0A
:100CE000DBB2002BF8D00220FFF716FE0023181C01
:100CF000BD4604B080BDC04680F0FA023F787D0159
:100D00000696FFFF0896FFFF00020050FFFFFBFF63
:100D1000FFFFFEFF80B584B000AF021CFB1D1A7000
:100D2000FB1D1B78012B0FD002DC002B05D020E02F
:100D3000022B10D0032B15D01BE0114BDB68DB0717
:100D4000DB0FDBB2FB6016E00D4BDB68DB06DB0F75
:100D5000DBB2FB600FE00A4BDB681B07DB0FDBB28B
:100D6000FB6008E0064BDB685B07DB0FDBB2FB6078
:100D700001E0044B00E0FB68181CBD4604B080BDD8
:100D8000000200500396FFFF80B582B002AF05203D
:100D9000FFF752FC052300930020032103220023C8
:100DA00000F056FA044B181C002100F0E1FA00F0A4
:100DB00065FBBD4680BDC046BD0D000080B582B05C
:100DC00000AF7860002000F06FFB031C0020191CAE
:100DD00000F074F8012000F067FB031C0120191CCF
:100DE00000F06CF8054B1A78044B5B78101C191C4A
:100DF000FFF7D8F9BD4602B080BDC04644000020D0
:100E000080B584B000AF78603B1C0F3300221A70AD
:100E10003B1C0E3331221A703EE03B1C0E331A7815
:100E20003B1C0F331B78D31A5B10D9B23B1C0D331C
:100E30003A1C0F3212788A181A703B1C0D331A783C
:100E40001D4B9200D2587B689A4203D13B1C0D3354
:100E50001B782DE03B1C0D331A78174B9200D258AB
:100E60007B689A420CD93B1C0E333A1C0D32127827
:100E70001A703B1C0F333A1C0F3212781A700BE0B9
:100E80003B1C0F333A1C0D3212781A703B1C0E3388
:100E90003A1C0E3212781A703B1C0E331A783B1C27
:100EA0000F331B78D31A012BB7DC3B1C0F331B7895
:100EB000181CBD4604B080BDE4150000F0B585B037
:100EC00000AF3960FA1D011C1170FA1D11785B4AE0
:100ED00089008A5839688A1AFA60FA68F9684A43B8
:100EE000FA60FA1D12789446FA1D12785449D2001D
:100EF0008A1811685268F868051CC017061C491941
:100F000072414F4D6646F000281801604260FA1D9C
:100F10001178FA1D10784B4A800080583A68801882
:100F2000484A89008850FA1D127847499000415874
:100F3000481C454992005050FA1D1178424A8900D8
:100F4000895880225201914274D1FA1D1578FA1DF8
:100F500012783E498A5C111CFA1D1078394A8000CB
:100F60008258100B3A4A2D01691889008850FA1DE1
:100F70001178FA1D12783548825C0F2A06D0FA1DC6
:100F800012783248825C0132D2B200E000222F484F
:100F900042540022FA603A1C0B320021117013E017
:100FA000FA1D10783A1C0B321178294A00014118B9
:100FB00089008958FA688A18FA603A1C0B3211784D
:100FC0003A1C0B32013111703A1C0B3212780F2A85
:100FD000E6D9FA1D1178FA681211101C174A890017
:100FE0008850FA1D1578FA1D12781549D2008A1812
:100FF0001168526810050B0B0343140B181CFFF704
:10100000FFFE031C1A1C134B5A55FB1D1A780E4B7E
:1010100092000021D150FB1D1A780A4B920000214A
:10102000D150FB1D1B78064ADB00D2180023002498
:1010300013605460BD4605B0F0BDC04600000020FE
:1010400048000020580000206000002040000020E0
:10105000840000204400002080B584B000AF2F4BF6
:101060001B695B075B0FDBB2BB60BB68052B01D95B
:101070000423BB60BB68022B05D0294BBA689200E1
:10108000D358FB602DE0254B1B6A1B049B0FDBB282
:101090007B607B68012B02D97B68013B7B601F4B27
:1010A0001B6A1B03DB0FDBB2002B01D01D4B00E0E2
:1010B0001D4B1A4A126AD205D20D92B202325A431D
:1010C000164B1B6A9B04DB0EDBB20233101C191C8F
:1010D00000F0FCF9031C1A1C7B68111CD9400B1C86
:1010E000FB600E4B9B691B071B0FDBB20133F868DB
:1010F000191C00F0EBF9031C1A1C0C4B1A600B4B6B
:101100001B680B4A9B18181C0A4900F0DFF9031CE6
:101110001A1C094B1A60BD4604B080BD0002005085
:101120001000002000805101001BB70008000020C3
:1011300020A1070040420F000C00002080B500AF46
:10114000BD4680BD80B582B000AF021CFB1D1A7089
:10115000064BFA1D1278111C1F220A400121081C9F
:101160009040021C1A60BD4602B080BD00E100E064
:10117000B0B582B000AF021C3960FB1D1A70FB1DB8
:101180001B787F2B32D93049FB1D1B781A1C0F238B
:101190001340083B98082C4AFB1D1B781C1C0F238E
:1011A0002340083B9B0806339B00D3185B68FA1D5D
:1011B0001278141C03222240D200FF24251C9540E3
:1011C0002A1CD2431A403B689C01FF231C40FB1D94
:1011D0001B781D1C03232B40DB00251C9D402B1C72
:1011E0001A43831D9B00CB185A6029E0174BFA1D48
:1011F000127852B292081549F81D007840B2800862
:10120000C03080004158F81D0078041C03202040A5
:10121000C000FF24251C8540281CC04308403968B5
:101220008C01FF210C40F91D09780D1C0321294078
:10123000C900251C8D40291C0143C0329200D150A9
:10124000BD4602B0B0BDC04600ED00E000E100E0E8
:1012500090B583B000AF041C081C111C1A1CFB1DA8
:101260001C70BB1D18707B1D19703B1D1A70A023CC
:10127000DB05DA68802149050A43DA60A023DB0533
:10128000D968364A0A40DA60354B3A1D1178032294
:101290000A40D1B203220A40920059690C208143CE
:1012A0000A435A612E4B3A1C18321178FF220A4029
:1012B000120498692B4901400A439A61284B9A68A5
:1012C000802149050A439A60274B1A6A01210A4383
:1012D0001A62FB1D1B78002B05D1234B196A234A88
:1012E0000A401A6205E0204B1A6A8021C9000A43AD
:1012F0001A62BB1D1B78002B05D11B4B1A6A0C21EF
:101300008A431A621CE0BB1D1B78012B07D1164BC8
:101310001A6A0C218A4304210A431A6210E0BB1D99
:101320001B78022B07D1104B1A6A0C218A43082123
:101330000A431A6204E00C4B1A6A0C210A431A622F
:10134000094B7A1D1178FF220A40596AFF20814318
:101350000A435A62BD4603B090BDC046FFFFFFEF8F
:1013600000020050FFFF00FF00000E40FFFBFFFFE8
:1013700080B582B000AF786039600E4B7A681A6031
:101380000D4B3A681A600D4B0C4A126807218A43CC
:1013900001210A431A600A4B1A6A02210A431A629F
:1013A0001D200221FFF7E4FE1D20FFF7CBFEBD4606
:1013B00002B080BD680000207400002030000E40A4
:1013C00000000E4080B500AF264B1B6BDB07DB0F28
:1013D000DBB2012B11D1244B1B68002B05D0224B13
:1013E0001A68224B1B68181C9047214B204A126830
:1013F00007218A4301210A431A601A4B1B6B9B0782
:10140000DB0FDBB2012B11D11A4B1B68002B05D06F
:10141000184B1A68154B5B68181C9047144B144AFC
:10142000126807218A4302210A431A600D4B1B6B85
:101430005B07DB0FDBB2012B11D10F4B1B68002BBD
:1014400005D00D4B1A68094B9B68181C9047084B38
:10145000074A126807218A4304210A431A60BD46DD
:1014600080BDC04600000E406800002074000020CF
:1014700030000E406C0000207000002080B500AFEE
:10148000074B074A126807218A4301210A431A6061
:10149000044B1A6A802109010A431A62BD4680BDC5
:1014A00030000E4000000E4080B582B000AF021C3C
:1014B000FB1D1A70044BFA1D12789200D3589BB290
:1014C000181CBD4602B080BD00000E40002934D07B
:1014D0000123002210B488422CD301242407A14206
:1014E00004D2814202D209011B01F8E7E400A142C3
:1014F00004D2814202D249005B00F8E7884201D35E
:10150000401A1A434C08A04202D3001B5C08224335
:101510008C08A04202D3001B9C082243CC08A042A6
:1015200002D3001BDC082243002803D01B0901D092
:101530000909E3E7101C10BC7047002801D0002007
:10154000C04307B4024802A14018029003BDC04640
:10155000190000000029F0D003B5FFF7B9FF0EBC59
:101560004243891A1847C0467047C04658060000D3
:10157000780600008C060000A0060000B4060000FB
:10158000C8060000C8060000C8060000C806000023
:10159000C8060000C8060000C8060000C806000013
:1015A000F406000006070000180700002A070000E4
:1015B0003C07000050070000640700008807000097
:1015C000AE070000AE070000AE070000AE07000047
:1015D000DE070000DE0700002408000014080000F9
:1015E000680800000B000000120000001C00000052
:1015F0002D0000004700000070000000B100000056
:1016000019010000BD010000C20200005E040000DC
:10161000ED060000F90A000065110000911B0000B2
:10162000B12B00003F4500002D570000BF6D0000AA
:10163000298A0000F0AD0000F9DA0000AB130100C8
:101640000C5B0100E8B401000826020073B402003C
:10165000BE670300764904009F650500340E06004E
:101660005BCB0600979F0700B88D0800E89809003B
:10167000B2C40A0010150C00798E0D00EF350F0072
:10168000111111002C261300547C1500781B180032
:10169000810C1B006C591E006F0D22001F352600A7
:0C16A00099DE2A00B419300034F835003F
:1016AC000008000000080000008051011600000036
:1016BC00001BB70000000000008051011027000043
:0416CC000080510148
:00000001FF
